{
  "contractName": "SendMoney",
  "abi": [
    {
      "inputs": [],
      "stateMutability": "nonpayable",
      "type": "constructor"
    },
    {
      "anonymous": false,
      "inputs": [
        {
          "indexed": true,
          "internalType": "address",
          "name": "_from",
          "type": "address"
        },
        {
          "indexed": true,
          "internalType": "address",
          "name": "_to",
          "type": "address"
        },
        {
          "indexed": false,
          "internalType": "uint256",
          "name": "_value",
          "type": "uint256"
        }
      ],
      "name": "Transfer",
      "type": "event"
    },
    {
      "inputs": [
        {
          "internalType": "address",
          "name": "sender",
          "type": "address"
        },
        {
          "internalType": "address",
          "name": "receiver",
          "type": "address"
        },
        {
          "internalType": "uint256",
          "name": "amount",
          "type": "uint256"
        }
      ],
      "name": "sendCoin",
      "outputs": [
        {
          "internalType": "bool",
          "name": "sufficient",
          "type": "bool"
        }
      ],
      "stateMutability": "payable",
      "type": "function",
      "payable": true
    },
    {
      "inputs": [
        {
          "internalType": "address",
          "name": "_receiver",
          "type": "address"
        },
        {
          "internalType": "uint256",
          "name": "_amount",
          "type": "uint256"
        }
      ],
      "name": "sendAmount",
      "outputs": [],
      "stateMutability": "nonpayable",
      "type": "function"
    },
    {
      "inputs": [
        {
          "internalType": "address",
          "name": "_sender",
          "type": "address"
        }
      ],
      "name": "getSenderAmount",
      "outputs": [
        {
          "internalType": "uint256",
          "name": "",
          "type": "uint256"
        }
      ],
      "stateMutability": "view",
      "type": "function",
      "constant": true
    },
    {
      "inputs": [
        {
          "internalType": "address",
          "name": "_receiver",
          "type": "address"
        }
      ],
      "name": "getReceiverAmount",
      "outputs": [
        {
          "internalType": "uint256",
          "name": "",
          "type": "uint256"
        }
      ],
      "stateMutability": "view",
      "type": "function",
      "constant": true
    }
  ],
  "bytecode": "0x608060405234801561001057600080fd5b506104fb806100206000396000f3fe60806040526004361061003f5760003560e01c8063012a2c43146100445780630b40bd88146100815780634128f39f146100b15780635d461de5146100ee575b600080fd5b34801561005057600080fd5b5061006b600480360381019061006691906102e6565b610117565b604051610078919061032c565b60405180910390f35b61009b60048036038101906100969190610373565b610138565b6040516100a891906103e1565b60405180910390f35b3480156100bd57600080fd5b506100d860048036038101906100d391906102e6565b610204565b6040516100e5919061032c565b60405180910390f35b3480156100fa57600080fd5b50610115600480360381019061011091906103fc565b610225565b005b60008173ffffffffffffffffffffffffffffffffffffffff16319050919050565b60008273ffffffffffffffffffffffffffffffffffffffff166108fc670de0b6b3a764000084610168919061046b565b9081150290604051600060405180830381858888f19350505050158015610193573d6000803e3d6000fd5b508273ffffffffffffffffffffffffffffffffffffffff168473ffffffffffffffffffffffffffffffffffffffff167fddf252ad1be2c89b69c2b068fc378daa952ba7f163c4a11628f55a4df523b3ef846040516101f1919061032c565b60405180910390a3600190509392505050565b60008173ffffffffffffffffffffffffffffffffffffffff16319050919050565b8173ffffffffffffffffffffffffffffffffffffffff166108fc670de0b6b3a764000083610253919061046b565b9081150290604051600060405180830381858888f1935050505015801561027e573d6000803e3d6000fd5b505050565b600080fd5b600073ffffffffffffffffffffffffffffffffffffffff82169050919050565b60006102b382610288565b9050919050565b6102c3816102a8565b81146102ce57600080fd5b50565b6000813590506102e0816102ba565b92915050565b6000602082840312156102fc576102fb610283565b5b600061030a848285016102d1565b91505092915050565b6000819050919050565b61032681610313565b82525050565b6000602082019050610341600083018461031d565b92915050565b61035081610313565b811461035b57600080fd5b50565b60008135905061036d81610347565b92915050565b60008060006060848603121561038c5761038b610283565b5b600061039a868287016102d1565b93505060206103ab868287016102d1565b92505060406103bc8682870161035e565b9150509250925092565b60008115159050919050565b6103db816103c6565b82525050565b60006020820190506103f660008301846103d2565b92915050565b6000806040838503121561041357610412610283565b5b6000610421858286016102d1565b92505060206104328582860161035e565b9150509250929050565b7f4e487b7100000000000000000000000000000000000000000000000000000000600052601160045260246000fd5b600061047682610313565b915061048183610313565b9250817fffffffffffffffffffffffffffffffffffffffffffffffffffffffffffffffff04831182151516156104ba576104b961043c565b5b82820290509291505056fea2646970667358221220d1d53ea21bcd7d6d2ad5d72eb8285f08d4b2e7eb07cae124d4f656b96fe4340164736f6c634300080f0033",
  "immutableReferences": {},
  "source": "// SPDX-License-Identifier: MIT\r\npragma solidity >=0.4.22 <0.9.0;\r\n//Main class that will be used to perform operation on our block.\r\ncontract SendMoney\r\n{\r\n\r\n   // uint public amount = 0;\r\n\r\n     event Transfer(address indexed _from, address indexed _to, uint256  _value);\r\n\r\n    constructor() {\t\t\r\n\t}\r\n\r\nfunction sendCoin(address sender, address receiver, uint amount) public payable returns(bool sufficient) {\r\n    payable(receiver).transfer(amount * (1 ether));\r\n    emit Transfer(sender, receiver, amount);\r\n    return true;\r\n}\r\n    function sendAmount(address _receiver, uint _amount) public  \r\n    {\r\n        payable(_receiver).transfer(_amount * (1 ether));\r\n    }\r\n\r\n    function getSenderAmount(address _sender) public view returns(uint)\r\n    {\r\n        return (_sender).balance;\r\n    }    \r\n    function getReceiverAmount(address _receiver) public view returns(uint)\r\n    {\r\n        return (_receiver).balance;\r\n    }     \r\n}",
  "sourcePath": "C:\\Ethereum_workspace\\siddhuethreuminfuraproject\\contracts\\SendMoney.sol",
  "compiler": {
    "name": "solc",
    "version": "0.8.15+commit.e14f2714.Emscripten.clang"
  },
  "schemaVersion": "3.4.8",
  "updatedAt": "2022-08-29T12:04:25.790Z",
  "networkType": "ethereum",
  "devdoc": {
    "kind": "dev",
    "methods": {},
    "version": 1
  },
  "userdoc": {
    "kind": "user",
    "methods": {},
    "version": 1
  }
}